{
  "contractName": "ChainList",
  "abi": [
    {
      "constant": true,
      "inputs": [
        {
          "name": "",
          "type": "uint256"
        }
      ],
      "name": "articles",
      "outputs": [
        {
          "name": "id",
          "type": "uint256"
        },
        {
          "name": "seller",
          "type": "address"
        },
        {
          "name": "buyer",
          "type": "address"
        },
        {
          "name": "name",
          "type": "string"
        },
        {
          "name": "description",
          "type": "string"
        },
        {
          "name": "price",
          "type": "uint256"
        }
      ],
      "payable": false,
      "stateMutability": "view",
      "type": "function"
    },
    {
      "anonymous": false,
      "inputs": [
        {
          "indexed": true,
          "name": "_id",
          "type": "uint256"
        },
        {
          "indexed": true,
          "name": "_seller",
          "type": "address"
        },
        {
          "indexed": false,
          "name": "_name",
          "type": "string"
        },
        {
          "indexed": false,
          "name": "_price",
          "type": "uint256"
        }
      ],
      "name": "LogSellArticle",
      "type": "event"
    },
    {
      "anonymous": false,
      "inputs": [
        {
          "indexed": true,
          "name": "_id",
          "type": "uint256"
        },
        {
          "indexed": true,
          "name": "_seller",
          "type": "address"
        },
        {
          "indexed": true,
          "name": "_buyer",
          "type": "address"
        },
        {
          "indexed": false,
          "name": "_name",
          "type": "string"
        },
        {
          "indexed": false,
          "name": "_price",
          "type": "uint256"
        }
      ],
      "name": "LogBuyArticle",
      "type": "event"
    },
    {
      "constant": false,
      "inputs": [],
      "name": "kill",
      "outputs": [],
      "payable": false,
      "stateMutability": "nonpayable",
      "type": "function"
    },
    {
      "constant": false,
      "inputs": [
        {
          "name": "_name",
          "type": "string"
        },
        {
          "name": "_description",
          "type": "string"
        },
        {
          "name": "_price",
          "type": "uint256"
        }
      ],
      "name": "sellArticle",
      "outputs": [],
      "payable": false,
      "stateMutability": "nonpayable",
      "type": "function"
    },
    {
      "constant": true,
      "inputs": [],
      "name": "getNumberArticles",
      "outputs": [
        {
          "name": "",
          "type": "uint256"
        }
      ],
      "payable": false,
      "stateMutability": "view",
      "type": "function"
    },
    {
      "constant": true,
      "inputs": [],
      "name": "getUnsoldArticles",
      "outputs": [
        {
          "name": "",
          "type": "uint256[]"
        }
      ],
      "payable": false,
      "stateMutability": "view",
      "type": "function"
    },
    {
      "constant": false,
      "inputs": [
        {
          "name": "_id",
          "type": "uint256"
        }
      ],
      "name": "buyArticle",
      "outputs": [],
      "payable": true,
      "stateMutability": "payable",
      "type": "function"
    }
  ],
  "bytecode": "0x6060604052336000806101000a81548173ffffffffffffffffffffffffffffffffffffffff021916908373ffffffffffffffffffffffffffffffffffffffff160217905550610c14806100536000396000f300606060405260043610610078576000357c0100000000000000000000000000000000000000000000000000000000900463ffffffff1680631cc4baa81461007d57806341c0e1b514610095578063a037417f146100aa578063d2609515146100d3578063e3db15ab1461017c578063edcfafe6146101e6575b600080fd5b610093600480803590602001909190505061039c565b005b34156100a057600080fd5b6100a8610684565b005b34156100b557600080fd5b6100bd610719565b6040518082815260200191505060405180910390f35b34156100de57600080fd5b61017a600480803590602001908201803590602001908080601f0160208091040260200160405190810160405280939291908181526020018383808284378201915050505050509190803590602001908201803590602001908080601f01602080910402602001604051908101604052809392919081815260200183838082843782019150505050505091908035906020019091905050610723565b005b341561018757600080fd5b61018f610949565b6040518080602001828103825283818151815260200191508051906020019060200280838360005b838110156101d25780820151818401526020810190506101b7565b505050509050019250505060405180910390f35b34156101f157600080fd5b6102076004808035906020019091905050610ab5565b604051808781526020018673ffffffffffffffffffffffffffffffffffffffff1673ffffffffffffffffffffffffffffffffffffffff1681526020018573ffffffffffffffffffffffffffffffffffffffff1673ffffffffffffffffffffffffffffffffffffffff16815260200180602001806020018481526020018381038352868181546001816001161561010002031660029004815260200191508054600181600116156101000203166002900480156103045780601f106102d957610100808354040283529160200191610304565b820191906000526020600020905b8154815290600101906020018083116102e757829003601f168201915b50508381038252858181546001816001161561010002031660029004815260200191508054600181600116156101000203166002900480156103875780601f1061035c57610100808354040283529160200191610387565b820191906000526020600020905b81548152906001019060200180831161036a57829003601f168201915b50509850505050505050505060405180910390f35b6000806002541115156103ae57600080fd5b6000821180156103c057506002548211155b15156103cb57600080fd5b60016000838152602001908152602001600020905060008160020160009054906101000a900473ffffffffffffffffffffffffffffffffffffffff1673ffffffffffffffffffffffffffffffffffffffff1614151561042957600080fd5b8060010160009054906101000a900473ffffffffffffffffffffffffffffffffffffffff1673ffffffffffffffffffffffffffffffffffffffff163373ffffffffffffffffffffffffffffffffffffffff161415151561048857600080fd5b80600501543414151561049a57600080fd5b338160020160006101000a81548173ffffffffffffffffffffffffffffffffffffffff021916908373ffffffffffffffffffffffffffffffffffffffff1602179055508060010160009054906101000a900473ffffffffffffffffffffffffffffffffffffffff1673ffffffffffffffffffffffffffffffffffffffff166108fc349081150290604051600060405180830381858888f19350505050151561054157600080fd5b8060020160009054906101000a900473ffffffffffffffffffffffffffffffffffffffff1673ffffffffffffffffffffffffffffffffffffffff168160010160009054906101000a900473ffffffffffffffffffffffffffffffffffffffff1673ffffffffffffffffffffffffffffffffffffffff16837f5d28bc06e6f0c45405abfe77bd77236c767f9bd9d044ae2d954a415a2b4823e084600301856005015460405180806020018381526020018281038252848181546001816001161561010002031660029004815260200191508054600181600116156101000203166002900480156106715780601f1061064657610100808354040283529160200191610671565b820191906000526020600020905b81548152906001019060200180831161065457829003601f168201915b5050935050505060405180910390a45050565b6000809054906101000a900473ffffffffffffffffffffffffffffffffffffffff1673ffffffffffffffffffffffffffffffffffffffff163373ffffffffffffffffffffffffffffffffffffffff161415156106df57600080fd5b6000809054906101000a900473ffffffffffffffffffffffffffffffffffffffff1673ffffffffffffffffffffffffffffffffffffffff16ff5b6000600254905090565b60026000815480929190600101919050555060c06040519081016040528060025481526020013373ffffffffffffffffffffffffffffffffffffffff168152602001600073ffffffffffffffffffffffffffffffffffffffff168152602001848152602001838152602001828152506001600060025481526020019081526020016000206000820151816000015560208201518160010160006101000a81548173ffffffffffffffffffffffffffffffffffffffff021916908373ffffffffffffffffffffffffffffffffffffffff16021790555060408201518160020160006101000a81548173ffffffffffffffffffffffffffffffffffffffff021916908373ffffffffffffffffffffffffffffffffffffffff160217905550606082015181600301908051906020019061085b929190610b2f565b506080820151816004019080519060200190610878929190610b2f565b5060a082015181600501559050503373ffffffffffffffffffffffffffffffffffffffff166002547fe2ebb0c522a8b90a93f45a5dfd3c0e0516b81519fdf199efe51c474642fe8cec85846040518080602001838152602001828103825284818151815260200191508051906020019080838360005b838110156109095780820151818401526020810190506108ee565b50505050905090810190601f1680156109365780820380516001836020036101000a031916815260200191505b50935050505060405180910390a3505050565b610951610baf565b610959610baf565b600080610964610baf565b60006002546040518059106109765750595b9080825280602002602001820160405250945060009350600192505b60025483111515610a3b5760006001600085815260200190815260200160002060020160009054906101000a900473ffffffffffffffffffffffffffffffffffffffff1673ffffffffffffffffffffffffffffffffffffffff161415610a2e5760016000848152602001908152602001600020600001548585815181101515610a1757fe5b906020019060200201818152505083806001019450505b8280600101935050610992565b83604051805910610a495750595b90808252806020026020018201604052509150600090505b83811015610aaa578481815181101515610a7757fe5b906020019060200201518282815181101515610a8f57fe5b90602001906020020181815250508080600101915050610a61565b819550505050505090565b60016020528060005260406000206000915090508060000154908060010160009054906101000a900473ffffffffffffffffffffffffffffffffffffffff16908060020160009054906101000a900473ffffffffffffffffffffffffffffffffffffffff1690806003019080600401908060050154905086565b828054600181600116156101000203166002900490600052602060002090601f016020900481019282601f10610b7057805160ff1916838001178555610b9e565b82800160010185558215610b9e579182015b82811115610b9d578251825591602001919060010190610b82565b5b509050610bab9190610bc3565b5090565b602060405190810160405280600081525090565b610be591905b80821115610be1576000816000905550600101610bc9565b5090565b905600a165627a7a72305820ea093e168dcaafd01c5d77593bda9eafaede141adf87caa096c14feae1796bed0029",
  "source": "pragma solidity ^0.4.18;\r\n\r\nimport \"./Ownable.sol\";\r\n\r\ncontract ChainList is Ownable {\r\n    //custom types\r\n    struct Article {\r\n        uint id;\r\n        address seller;\r\n        address buyer;\r\n        string name;\r\n        string description;\r\n        uint256 price;\r\n    }\r\n\r\n    // state variables\r\n    mapping (uint => Article) public articles;\r\n    uint articleCounter;\r\n\r\n    //events\r\n    event LogSellArticle(\r\n        uint indexed _id,\r\n        address indexed _seller,\r\n        string _name,\r\n        uint256 _price\r\n    );\r\n\r\n    event LogBuyArticle(\r\n        uint indexed _id,\r\n        address indexed _seller,\r\n        address indexed _buyer,\r\n        string _name,\r\n        uint256 _price\r\n    );\r\n\r\n    //deactivate contract\r\n    //constructor and modifier are in Ownable contract\r\n    function kill() public onlyOwner {\r\n        selfdestruct(contractOwner);\r\n    }\r\n\r\n    //sell an article\r\n    function sellArticle(string _name, string _description, uint256 _price) public {\r\n        //new article\r\n        articleCounter++;\r\n\r\n        //must be in the same order as struct declaration\r\n        articles[articleCounter] = Article(\r\n            articleCounter, //id\r\n            msg.sender, //seller\r\n            0x0, //buyer\r\n            _name, //name\r\n            _description, //description\r\n            _price //price\r\n        );\r\n\r\n        LogSellArticle(articleCounter,msg.sender,_name,_price);\r\n    }\r\n\r\n    //get an article\r\n    // function getArticle() public view returns (\r\n    //     address _seller,\r\n    //     address _buyer,\r\n    //     string _name,\r\n    //     string _description,\r\n    //     uint256 _price\r\n    //     ) {\r\n    //         return(seller,buyer,name,description,price);\r\n    // }\r\n\r\n    //number of articles stored in contract\r\n    function getNumberArticles() public view returns (uint){\r\n        return articleCounter; \r\n    }\r\n\r\n    //return array of identifiers for unsold articles\r\n    function getUnsoldArticles() public view returns (uint[]) {\r\n        uint[] memory articleIds = new uint[](articleCounter);\r\n\r\n        uint numberUnsoldArticles = 0;\r\n\r\n        for(uint i=1; i<= articleCounter; i++) {\r\n            if(articles[i].buyer == 0x0) {\r\n                articleIds[numberUnsoldArticles] = articles[i].id;\r\n                numberUnsoldArticles++;\r\n            }\r\n        }\r\n\r\n        //copy articleIds array into a smaller array\r\n        uint[] memory forSale = new uint[](numberUnsoldArticles);\r\n        for(uint j=0; j< numberUnsoldArticles; j++) {\r\n                forSale[j] = articleIds[j];\r\n        }\r\n\r\n        return forSale;\r\n    }\r\n\r\n    //buy an article\r\n    function buyArticle(uint _id) public payable {\r\n        //check if there is an article for sale\r\n        require(articleCounter > 0);\r\n        //check that id corresponds to an existing article\r\n        require(_id >0 && _id <=articleCounter);\r\n\r\n        Article storage article = articles[_id];\r\n        //check that the article has not been sold yet\r\n        require(article.buyer == 0x0);\r\n        //we do not allow the seller to buy his own article\r\n        require(msg.sender != article.seller);\r\n        //value sent corresponds to the article price\r\n        require(msg.value == article.price);\r\n\r\n        //keep track of buyer's information\r\n        article.buyer = msg.sender;\r\n\r\n        //the buyer pays the seller\r\n        article.seller.transfer(msg.value);\r\n\r\n        //trigger the event\r\n        LogBuyArticle(_id, article.seller, article.buyer, article.name, article.price);\r\n    }\r\n}",
  "sourcePath": "C:\\Users\\antho\\ChainSkills\\Training\\chainlist\\contracts\\ChainList.sol",
  "compiler": {
    "name": "solc",
    "version": "0.4.19+commit.c4cbbb05.Emscripten.clang"
  },
  "schemaVersion": "2.0.0",
  "updatedAt": "2020-07-31T05:49:24.949Z"
}